{
  "contractName": "Voting",
  "abi": [
    {
      "inputs": [
        {
          "internalType": "string[]",
          "name": "candidateNames",
          "type": "string[]"
        }
      ],
      "stateMutability": "nonpayable",
      "type": "constructor"
    },
    {
      "anonymous": false,
      "inputs": [
        {
          "indexed": true,
          "internalType": "address",
          "name": "voter",
          "type": "address"
        },
        {
          "indexed": false,
          "internalType": "uint256",
          "name": "candidateId",
          "type": "uint256"
        }
      ],
      "name": "Voted",
      "type": "event"
    },
    {
      "inputs": [
        {
          "internalType": "uint256",
          "name": "",
          "type": "uint256"
        }
      ],
      "name": "candidates",
      "outputs": [
        {
          "internalType": "string",
          "name": "name",
          "type": "string"
        },
        {
          "internalType": "uint256",
          "name": "voteCount",
          "type": "uint256"
        }
      ],
      "stateMutability": "view",
      "type": "function",
      "constant": true
    },
    {
      "inputs": [],
      "name": "candidatesCount",
      "outputs": [
        {
          "internalType": "uint256",
          "name": "",
          "type": "uint256"
        }
      ],
      "stateMutability": "view",
      "type": "function",
      "constant": true
    },
    {
      "inputs": [
        {
          "internalType": "address",
          "name": "",
          "type": "address"
        }
      ],
      "name": "voters",
      "outputs": [
        {
          "internalType": "bool",
          "name": "",
          "type": "bool"
        }
      ],
      "stateMutability": "view",
      "type": "function",
      "constant": true
    },
    {
      "inputs": [
        {
          "internalType": "uint256",
          "name": "candidateId",
          "type": "uint256"
        }
      ],
      "name": "vote",
      "outputs": [],
      "stateMutability": "nonpayable",
      "type": "function"
    },
    {
      "inputs": [
        {
          "internalType": "uint256",
          "name": "candidateId",
          "type": "uint256"
        }
      ],
      "name": "getVotes",
      "outputs": [
        {
          "internalType": "uint256",
          "name": "",
          "type": "uint256"
        }
      ],
      "stateMutability": "view",
      "type": "function",
      "constant": true
    }
  ],
  "bytecode": "0x60806040523480156200001157600080fd5b5060405162000fab38038062000fab833981810160405281019062000037919062000375565b60005b8151811015620000de576040518060400160405280838381518110620000655762000064620003c6565b5b6020026020010151815260200160008152506000808381526020019081526020016000206000820151816000019081620000a0919062000640565b506020820151816001015590505060026000815480929190620000c39062000756565b91905055508080620000d59062000756565b9150506200003a565b5050620007a3565b6000604051905090565b600080fd5b600080fd5b600080fd5b6000601f19601f8301169050919050565b7f4e487b7100000000000000000000000000000000000000000000000000000000600052604160045260246000fd5b6200014a82620000ff565b810181811067ffffffffffffffff821117156200016c576200016b62000110565b5b80604052505050565b600062000181620000e6565b90506200018f82826200013f565b919050565b600067ffffffffffffffff821115620001b257620001b162000110565b5b602082029050602081019050919050565b600080fd5b600080fd5b600067ffffffffffffffff821115620001eb57620001ea62000110565b5b620001f682620000ff565b9050602081019050919050565b60005b838110156200022357808201518184015260208101905062000206565b60008484015250505050565b6000620002466200024084620001cd565b62000175565b905082815260208101848484011115620002655762000264620001c8565b5b6200027284828562000203565b509392505050565b600082601f830112620002925762000291620000fa565b5b8151620002a48482602086016200022f565b91505092915050565b6000620002c4620002be8462000194565b62000175565b90508083825260208201905060208402830185811115620002ea57620002e9620001c3565b5b835b818110156200033857805167ffffffffffffffff811115620003135762000312620000fa565b5b8086016200032289826200027a565b85526020850194505050602081019050620002ec565b5050509392505050565b600082601f8301126200035a5762000359620000fa565b5b81516200036c848260208601620002ad565b91505092915050565b6000602082840312156200038e576200038d620000f0565b5b600082015167ffffffffffffffff811115620003af57620003ae620000f5565b5b620003bd8482850162000342565b91505092915050565b7f4e487b7100000000000000000000000000000000000000000000000000000000600052603260045260246000fd5b600081519050919050565b7f4e487b7100000000000000000000000000000000000000000000000000000000600052602260045260246000fd5b600060028204905060018216806200044857607f821691505b6020821081036200045e576200045d62000400565b5b50919050565b60008190508160005260206000209050919050565b60006020601f8301049050919050565b600082821b905092915050565b600060088302620004c87fffffffffffffffffffffffffffffffffffffffffffffffffffffffffffffffff8262000489565b620004d4868362000489565b95508019841693508086168417925050509392505050565b6000819050919050565b6000819050919050565b6000620005216200051b6200051584620004ec565b620004f6565b620004ec565b9050919050565b6000819050919050565b6200053d8362000500565b620005556200054c8262000528565b84845462000496565b825550505050565b600090565b6200056c6200055d565b6200057981848462000532565b505050565b5b81811015620005a1576200059560008262000562565b6001810190506200057f565b5050565b601f821115620005f057620005ba8162000464565b620005c58462000479565b81016020851015620005d5578190505b620005ed620005e48562000479565b8301826200057e565b50505b505050565b600082821c905092915050565b60006200061560001984600802620005f5565b1980831691505092915050565b600062000630838362000602565b9150826002028217905092915050565b6200064b82620003f5565b67ffffffffffffffff81111562000667576200066662000110565b5b6200067382546200042f565b62000680828285620005a5565b600060209050601f831160018114620006b85760008415620006a3578287015190505b620006af858262000622565b8655506200071f565b601f198416620006c88662000464565b60005b82811015620006f257848901518255600182019150602085019450602081019050620006cb565b868310156200071257848901516200070e601f89168262000602565b8355505b6001600288020188555050505b505050505050565b7f4e487b7100000000000000000000000000000000000000000000000000000000600052601160045260246000fd5b60006200076382620004ec565b91507fffffffffffffffffffffffffffffffffffffffffffffffffffffffffffffffff820362000798576200079762000727565b5b600182019050919050565b6107f880620007b36000396000f3fe608060405234801561001057600080fd5b50600436106100575760003560e01c80630121b93f1461005c5780632d35a8a2146100785780633477ee2e14610096578063a3ec138d146100c7578063ff981099146100f7575b600080fd5b6100766004803603810190610071919061043b565b610127565b005b6100806102cb565b60405161008d9190610477565b60405180910390f35b6100b060048036038101906100ab919061043b565b6102d1565b6040516100be929190610522565b60405180910390f35b6100e160048036038101906100dc91906105b0565b61037d565b6040516100ee91906105f8565b60405180910390f35b610111600480360381019061010c919061043b565b61039d565b60405161011e9190610477565b60405180910390f35b600160003373ffffffffffffffffffffffffffffffffffffffff1673ffffffffffffffffffffffffffffffffffffffff16815260200190815260200160002060009054906101000a900460ff16156101b4576040517f08c379a00000000000000000000000000000000000000000000000000000000081526004016101ab9061065f565b60405180910390fd5b60025481106101f8576040517f08c379a00000000000000000000000000000000000000000000000000000000081526004016101ef906106cb565b60405180910390fd5b60018060003373ffffffffffffffffffffffffffffffffffffffff1673ffffffffffffffffffffffffffffffffffffffff16815260200190815260200160002060006101000a81548160ff02191690831515021790555060008082815260200190815260200160002060010160008154809291906102759061071a565b91905055503373ffffffffffffffffffffffffffffffffffffffff167f4d99b957a2bc29a30ebd96a7be8e68fe50a3c701db28a91436490b7d53870ca4826040516102c09190610477565b60405180910390a250565b60025481565b60006020528060005260406000206000915090508060000180546102f490610791565b80601f016020809104026020016040519081016040528092919081815260200182805461032090610791565b801561036d5780601f106103425761010080835404028352916020019161036d565b820191906000526020600020905b81548152906001019060200180831161035057829003601f168201915b5050505050908060010154905082565b60016020528060005260406000206000915054906101000a900460ff1681565b600060025482106103e3576040517f08c379a00000000000000000000000000000000000000000000000000000000081526004016103da906106cb565b60405180910390fd5b600080838152602001908152602001600020600101549050919050565b600080fd5b6000819050919050565b61041881610405565b811461042357600080fd5b50565b6000813590506104358161040f565b92915050565b60006020828403121561045157610450610400565b5b600061045f84828501610426565b91505092915050565b61047181610405565b82525050565b600060208201905061048c6000830184610468565b92915050565b600081519050919050565b600082825260208201905092915050565b60005b838110156104cc5780820151818401526020810190506104b1565b60008484015250505050565b6000601f19601f8301169050919050565b60006104f482610492565b6104fe818561049d565b935061050e8185602086016104ae565b610517816104d8565b840191505092915050565b6000604082019050818103600083015261053c81856104e9565b905061054b6020830184610468565b9392505050565b600073ffffffffffffffffffffffffffffffffffffffff82169050919050565b600061057d82610552565b9050919050565b61058d81610572565b811461059857600080fd5b50565b6000813590506105aa81610584565b92915050565b6000602082840312156105c6576105c5610400565b5b60006105d48482850161059b565b91505092915050565b60008115159050919050565b6105f2816105dd565b82525050565b600060208201905061060d60008301846105e9565b92915050565b7f416c726561647920766f74656400000000000000000000000000000000000000600082015250565b6000610649600d8361049d565b915061065482610613565b602082019050919050565b600060208201905081810360008301526106788161063c565b9050919050565b7f496e76616c69642063616e646964617465000000000000000000000000000000600082015250565b60006106b560118361049d565b91506106c08261067f565b602082019050919050565b600060208201905081810360008301526106e4816106a8565b9050919050565b7f4e487b7100000000000000000000000000000000000000000000000000000000600052601160045260246000fd5b600061072582610405565b91507fffffffffffffffffffffffffffffffffffffffffffffffffffffffffffffffff8203610757576107566106eb565b5b600182019050919050565b7f4e487b7100000000000000000000000000000000000000000000000000000000600052602260045260246000fd5b600060028204905060018216806107a957607f821691505b6020821081036107bc576107bb610762565b5b5091905056fea26469706673582212207bc2a76daaf2854570d1d85321bc23993b1b41cc0349534e760b091f8c9bcae764736f6c63430008130033",
  "immutableReferences": {},
  "source": "// SPDX-License-Identifier: MIT\r\npragma solidity ^0.8.0;\r\n\r\ncontract Voting {\r\n    struct Candidate {\r\n        string name;\r\n        uint voteCount;\r\n    }\r\n\r\n    mapping(uint => Candidate) public candidates;\r\n    mapping(address => bool) public voters;\r\n    uint public candidatesCount;\r\n\r\n    event Voted(address indexed voter, uint candidateId);\r\n\r\n    constructor(string[] memory candidateNames) {\r\n        for (uint i = 0; i < candidateNames.length; i++) {\r\n            candidates[i] = Candidate(candidateNames[i], 0);\r\n            candidatesCount++;\r\n        }\r\n    }\r\n\r\n    function vote(uint candidateId) public {\r\n        require(!voters[msg.sender], \"Already voted\");\r\n        require(candidateId < candidatesCount, \"Invalid candidate\");\r\n\r\n        voters[msg.sender] = true;\r\n        candidates[candidateId].voteCount++;\r\n\r\n        emit Voted(msg.sender, candidateId);\r\n    }\r\n\r\n    function getVotes(uint candidateId) public view returns (uint) {\r\n        require(candidateId < candidatesCount, \"Invalid candidate\");\r\n        return candidates[candidateId].voteCount;\r\n    }\r\n}\r\n",
  "sourcePath": "F:\\Kuliah\\Blockchain\\votingblc\\voting-app\\contracts\\Voting.sol",
  "compiler": {
    "name": "solc",
    "version": "0.8.19+commit.7dd6d404.Emscripten.clang"
  },
  "schemaVersion": "3.4.16",
  "updatedAt": "2025-02-04T03:09:18.551Z",
  "networkType": "ethereum",
  "devdoc": {
    "kind": "dev",
    "methods": {},
    "version": 1
  },
  "userdoc": {
    "kind": "user",
    "methods": {},
    "version": 1
  }
}